{
  "_format": "hh-sol-artifact-1",
  "contractName": "SMC1",
  "sourceName": "contracts/SMC1.sol",
  "abi": [
    {
      "inputs": [
        {
          "internalType": "uint256",
          "name": "_a",
          "type": "uint256"
        }
      ],
      "name": "createPost",
      "outputs": [],
      "stateMutability": "nonpayable",
      "type": "function"
    },
    {
      "inputs": [],
      "name": "getmediapostid",
      "outputs": [
        {
          "internalType": "uint256",
          "name": "",
          "type": "uint256"
        }
      ],
      "stateMutability": "view",
      "type": "function"
    },
    {
      "inputs": [],
      "name": "media_object_creater_id",
      "outputs": [
        {
          "internalType": "address",
          "name": "",
          "type": "address"
        }
      ],
      "stateMutability": "view",
      "type": "function"
    },
    {
      "inputs": [],
      "name": "media_object_id",
      "outputs": [
        {
          "internalType": "uint256",
          "name": "",
          "type": "uint256"
        }
      ],
      "stateMutability": "view",
      "type": "function"
    },
    {
      "inputs": [],
      "name": "posting_time",
      "outputs": [
        {
          "internalType": "uint256",
          "name": "",
          "type": "uint256"
        }
      ],
      "stateMutability": "view",
      "type": "function"
    },
    {
      "inputs": [
        {
          "internalType": "address",
          "name": "",
          "type": "address"
        }
      ],
      "name": "user",
      "outputs": [
        {
          "internalType": "string",
          "name": "",
          "type": "string"
        }
      ],
      "stateMutability": "view",
      "type": "function"
    },
    {
      "inputs": [
        {
          "internalType": "uint256",
          "name": "_media_object_id",
          "type": "uint256"
        },
        {
          "internalType": "string",
          "name": "_media_object_post",
          "type": "string"
        },
        {
          "internalType": "uint256",
          "name": "_like",
          "type": "uint256"
        },
        {
          "internalType": "uint256",
          "name": "_share",
          "type": "uint256"
        },
        {
          "internalType": "uint256",
          "name": "_comment",
          "type": "uint256"
        },
        {
          "internalType": "uint256",
          "name": "_complete_view",
          "type": "uint256"
        },
        {
          "internalType": "uint256",
          "name": "_multiple_view",
          "type": "uint256"
        },
        {
          "internalType": "uint256",
          "name": "_download",
          "type": "uint256"
        }
      ],
      "name": "userAction",
      "outputs": [],
      "stateMutability": "nonpayable",
      "type": "function"
    },
    {
      "inputs": [],
      "name": "user_aa",
      "outputs": [
        {
          "internalType": "address",
          "name": "",
          "type": "address"
        }
      ],
      "stateMutability": "view",
      "type": "function"
    },
    {
      "inputs": [
        {
          "internalType": "uint256",
          "name": "",
          "type": "uint256"
        }
      ],
      "name": "user_action_done",
      "outputs": [
        {
          "internalType": "string",
          "name": "media_object_post",
          "type": "string"
        },
        {
          "internalType": "uint256",
          "name": "like",
          "type": "uint256"
        },
        {
          "internalType": "uint256",
          "name": "share",
          "type": "uint256"
        },
        {
          "internalType": "uint256",
          "name": "comment",
          "type": "uint256"
        },
        {
          "internalType": "uint256",
          "name": "complete_view",
          "type": "uint256"
        },
        {
          "internalType": "uint256",
          "name": "multiple_view",
          "type": "uint256"
        },
        {
          "internalType": "uint256",
          "name": "download",
          "type": "uint256"
        }
      ],
      "stateMutability": "view",
      "type": "function"
    },
    {
      "inputs": [],
      "name": "useraction_time",
      "outputs": [
        {
          "internalType": "uint256",
          "name": "",
          "type": "uint256"
        }
      ],
      "stateMutability": "view",
      "type": "function"
    }
  ],
  "bytecode": "0x6080604052600060065534801561001557600080fd5b50610965806100256000396000f3fe608060405234801561001057600080fd5b506004361061009e5760003560e01c8063986cd6cd11610066578063986cd6cd1461037f578063a83c7cd4146103b3578063ce5be962146103d1578063e6fc5ce814610405578063ecad1c0a146104235761009e565b8063051075c5146100a35780631d69bd48146101a55780631fd5d8fb146101d357806354ce0900146102a457806381e7e20e146102c2575b600080fd5b6101a360048036036101008110156100ba57600080fd5b8101908080359060200190929190803590602001906401000000008111156100e157600080fd5b8201836020820111156100f357600080fd5b8035906020019184600183028401116401000000008311171561011557600080fd5b91908080601f016020809104026020016040519081016040528093929190818152602001838380828437600081840152601f19601f820116905080830192505050505050509192919290803590602001909291908035906020019092919080359060200190929190803590602001909291908035906020019092919080359060200190929190505050610441565b005b6101d1600480360360208110156101bb57600080fd5b81019080803590602001909291905050506104fd565b005b6101ff600480360360208110156101e957600080fd5b81019080803590602001909291905050506106a2565b6040518080602001888152602001878152602001868152602001858152602001848152602001838152602001828103825289818151815260200191508051906020019080838360005b83811015610263578082015181840152602081019050610248565b50505050905090810190601f1680156102905780820380516001836020036101000a031916815260200191505b509850505050505050505060405180910390f35b6102ac61077c565b6040518082815260200191505060405180910390f35b610304600480360360208110156102d857600080fd5b81019080803573ffffffffffffffffffffffffffffffffffffffff169060200190929190505050610786565b6040518080602001828103825283818151815260200191508051906020019080838360005b83811015610344578082015181840152602081019050610329565b50505050905090810190601f1680156103715780820380516001836020036101000a031916815260200191505b509250505060405180910390f35b610387610836565b604051808273ffffffffffffffffffffffffffffffffffffffff16815260200191505060405180910390f35b6103bb61085a565b6040518082815260200191505060405180910390f35b6103d9610860565b604051808273ffffffffffffffffffffffffffffffffffffffff16815260200191505060405180910390f35b61040d610886565b6040518082815260200191505060405180910390f35b61042b61088c565b6040518082815260200191505060405180910390f35b42600181905550876006819055506040518060e001604052808881526020018781526020018681526020018581526020018481526020018381526020018281525060076000600654815260200190815260200160002060008201518160000190805190602001906104b3929190610892565b506020820151816001015560408201518160020155606082015181600301556080820151816004015560a0820151816005015560c082015181600601559050505050505050505050565b33600260006101000a81548173ffffffffffffffffffffffffffffffffffffffff021916908373ffffffffffffffffffffffffffffffffffffffff160217905550806006600082825401925050819055506006546004819055506040518060e001604052806040518060400160405280600481526020017f42696b650000000000000000000000000000000000000000000000000000000081525081526020016000815260200160008152602001600081526020016000815260200160008152602001600081525060076000600654815260200190815260200160002060008201518160000190805190602001906105f6929190610892565b506020820151816001015560408201518160020155606082015181600301556080820151816004015560a0820151816005015560c08201518160060155905050600260009054906101000a900473ffffffffffffffffffffffffffffffffffffffff166000806101000a81548173ffffffffffffffffffffffffffffffffffffffff021916908373ffffffffffffffffffffffffffffffffffffffff1602179055504260038190555050565b6007602052806000526040600020600091509050806000018054600181600116156101000203166002900480601f01602080910402602001604051908101604052809291908181526020018280546001816001161561010002031660029004801561074e5780601f106107235761010080835404028352916020019161074e565b820191906000526020600020905b81548152906001019060200180831161073157829003601f168201915b5050505050908060010154908060020154908060030154908060040154908060050154908060060154905087565b6000600454905090565b60056020528060005260406000206000915090508054600181600116156101000203166002900480601f01602080910402602001604051908101604052809291908181526020018280546001816001161561010002031660029004801561082e5780601f106108035761010080835404028352916020019161082e565b820191906000526020600020905b81548152906001019060200180831161081157829003601f168201915b505050505081565b60008054906101000a900473ffffffffffffffffffffffffffffffffffffffff1681565b60035481565b600260009054906101000a900473ffffffffffffffffffffffffffffffffffffffff1681565b60015481565b60045481565b828054600181600116156101000203166002900490600052602060002090601f016020900481019282601f106108d357805160ff1916838001178555610901565b82800160010185558215610901579182015b828111156109005782518255916020019190600101906108e5565b5b50905061090e9190610912565b5090565b5b8082111561092b576000816000905550600101610913565b509056fea2646970667358221220e7ffcadb0f99664b32df350845270ae64fe50d8fa95603477cbe722853a3da1e64736f6c63430007030033",
  "linkReferences": {},
  "deployedLinkReferences": {}
}